{
  "contractName": "DAOContract",
  "abi": [
    {
      "anonymous": false,
      "inputs": [
        {
          "indexed": false,
          "internalType": "uint256",
          "name": "_time",
          "type": "uint256"
        },
        {
          "indexed": false,
          "internalType": "uint256",
          "name": "_userCreditScore",
          "type": "uint256"
        }
      ],
      "name": "timeDiffEvent",
      "type": "event"
    },
    {
      "inputs": [
        {
          "internalType": "string",
          "name": "",
          "type": "string"
        }
      ],
      "name": "getAddressFromName",
      "outputs": [
        {
          "internalType": "address",
          "name": "",
          "type": "address"
        }
      ],
      "stateMutability": "view",
      "type": "function",
      "constant": true
    },
    {
      "inputs": [
        {
          "internalType": "address",
          "name": "",
          "type": "address"
        }
      ],
      "name": "userDetailsMapping",
      "outputs": [
        {
          "internalType": "address",
          "name": "userAddress",
          "type": "address"
        },
        {
          "internalType": "string",
          "name": "userName",
          "type": "string"
        },
        {
          "internalType": "string",
          "name": "userRegistrationTimestamp",
          "type": "string"
        },
        {
          "internalType": "uint256",
          "name": "userId",
          "type": "uint256"
        },
        {
          "internalType": "uint256",
          "name": "userCreditScore",
          "type": "uint256"
        },
        {
          "components": [
            {
              "internalType": "uint256",
              "name": "issuedDate",
              "type": "uint256"
            },
            {
              "internalType": "uint256",
              "name": "issuedAmount",
              "type": "uint256"
            },
            {
              "internalType": "enum DAOContract.loanStatus",
              "name": "LoanStatus",
              "type": "uint8"
            }
          ],
          "internalType": "struct DAOContract.userLoanDetails",
          "name": "userLoans",
          "type": "tuple"
        }
      ],
      "stateMutability": "view",
      "type": "function",
      "constant": true
    },
    {
      "inputs": [
        {
          "internalType": "uint256",
          "name": "",
          "type": "uint256"
        }
      ],
      "name": "users",
      "outputs": [
        {
          "internalType": "address",
          "name": "userAddress",
          "type": "address"
        },
        {
          "internalType": "string",
          "name": "userName",
          "type": "string"
        },
        {
          "internalType": "string",
          "name": "userRegistrationTimestamp",
          "type": "string"
        },
        {
          "internalType": "uint256",
          "name": "userId",
          "type": "uint256"
        },
        {
          "internalType": "uint256",
          "name": "userCreditScore",
          "type": "uint256"
        },
        {
          "components": [
            {
              "internalType": "uint256",
              "name": "issuedDate",
              "type": "uint256"
            },
            {
              "internalType": "uint256",
              "name": "issuedAmount",
              "type": "uint256"
            },
            {
              "internalType": "enum DAOContract.loanStatus",
              "name": "LoanStatus",
              "type": "uint8"
            }
          ],
          "internalType": "struct DAOContract.userLoanDetails",
          "name": "userLoans",
          "type": "tuple"
        }
      ],
      "stateMutability": "view",
      "type": "function",
      "constant": true
    },
    {
      "inputs": [
        {
          "internalType": "address",
          "name": "_userAddress",
          "type": "address"
        },
        {
          "internalType": "string",
          "name": "_userName",
          "type": "string"
        },
        {
          "internalType": "string",
          "name": "_userRegistrationTimestamp",
          "type": "string"
        },
        {
          "internalType": "uint256",
          "name": "_userId",
          "type": "uint256"
        }
      ],
      "name": "registerUser",
      "outputs": [],
      "stateMutability": "nonpayable",
      "type": "function"
    },
    {
      "inputs": [],
      "name": "fetchNumberOfUsers",
      "outputs": [
        {
          "internalType": "uint256",
          "name": "",
          "type": "uint256"
        }
      ],
      "stateMutability": "view",
      "type": "function",
      "constant": true
    },
    {
      "inputs": [
        {
          "internalType": "string",
          "name": "_userName",
          "type": "string"
        }
      ],
      "name": "fetchUserByName",
      "outputs": [
        {
          "components": [
            {
              "internalType": "address",
              "name": "userAddress",
              "type": "address"
            },
            {
              "internalType": "string",
              "name": "userName",
              "type": "string"
            },
            {
              "internalType": "string",
              "name": "userRegistrationTimestamp",
              "type": "string"
            },
            {
              "internalType": "uint256",
              "name": "userId",
              "type": "uint256"
            },
            {
              "internalType": "uint256",
              "name": "userCreditScore",
              "type": "uint256"
            },
            {
              "components": [
                {
                  "internalType": "uint256",
                  "name": "issuedDate",
                  "type": "uint256"
                },
                {
                  "internalType": "uint256",
                  "name": "issuedAmount",
                  "type": "uint256"
                },
                {
                  "internalType": "enum DAOContract.loanStatus",
                  "name": "LoanStatus",
                  "type": "uint8"
                }
              ],
              "internalType": "struct DAOContract.userLoanDetails",
              "name": "userLoans",
              "type": "tuple"
            }
          ],
          "internalType": "struct DAOContract.userDetails",
          "name": "",
          "type": "tuple"
        }
      ],
      "stateMutability": "view",
      "type": "function",
      "constant": true
    },
    {
      "inputs": [
        {
          "internalType": "string",
          "name": "_userName",
          "type": "string"
        },
        {
          "internalType": "uint256",
          "name": "_amount",
          "type": "uint256"
        }
      ],
      "name": "deposit",
      "outputs": [],
      "stateMutability": "nonpayable",
      "type": "function"
    },
    {
      "inputs": [
        {
          "internalType": "string",
          "name": "_userName",
          "type": "string"
        },
        {
          "internalType": "address payable",
          "name": "_to",
          "type": "address"
        },
        {
          "internalType": "uint256",
          "name": "_amount",
          "type": "uint256"
        }
      ],
      "name": "requestFund",
      "outputs": [
        {
          "internalType": "bool",
          "name": "",
          "type": "bool"
        }
      ],
      "stateMutability": "nonpayable",
      "type": "function"
    }
  ],
  "bytecode": "0x608060405234801561001057600080fd5b50611ce3806100206000396000f3fe608060405234801561001057600080fd5b50600436106100875760003560e01c80638e61514e1161005b5780638e61514e14610142578063b57d63f514610172578063e266e8b91461018e578063f0c3251a146101be57610087565b8062e81ba41461008c578063365b98b2146100bc5780635166608f146100f15780638e27d71914610126575b600080fd5b6100a660048036038101906100a191906113b7565b6101dc565b6040516100b39190611874565b60405180910390f35b6100d660048036038101906100d191906114b3565b6104b6565b6040516100e896959493929190611789565b60405180910390f35b61010b600480360381019061010691906112fb565b6106d7565b60405161011d96959493929190611789565b60405180910390f35b610140600480360381019061013b919061145f565b6108e8565b005b61015c600480360381019061015791906113b7565b610b6f565b604051610169919061176e565b60405180910390f35b61018c60048036038101906101879190611324565b610bb8565b005b6101a860048036038101906101a391906113f8565b610f45565b6040516101b591906117f9565b60405180910390f35b6101c66110f9565b6040516101d39190611896565b60405180910390f35b6101e4611106565b60006003836040516101f69190611757565b908152602001604051809103902060009054906101000a900473ffffffffffffffffffffffffffffffffffffffff169050600260008273ffffffffffffffffffffffffffffffffffffffff1673ffffffffffffffffffffffffffffffffffffffff1681526020019081526020016000206040518060c00160405290816000820160009054906101000a900473ffffffffffffffffffffffffffffffffffffffff1673ffffffffffffffffffffffffffffffffffffffff1673ffffffffffffffffffffffffffffffffffffffff1681526020016001820180546102d790611a5d565b80601f016020809104026020016040519081016040528092919081815260200182805461030390611a5d565b80156103505780601f1061032557610100808354040283529160200191610350565b820191906000526020600020905b81548152906001019060200180831161033357829003601f168201915b5050505050815260200160028201805461036990611a5d565b80601f016020809104026020016040519081016040528092919081815260200182805461039590611a5d565b80156103e25780601f106103b7576101008083540402835291602001916103e2565b820191906000526020600020905b8154815290600101906020018083116103c557829003601f168201915b5050505050815260200160038201548152602001600482015481526020016005820160405180606001604052908160008201548152602001600182015481526020016002820160009054906101000a900460ff16600481111561046e577f4e487b7100000000000000000000000000000000000000000000000000000000600052602160045260246000fd5b60048111156104a6577f4e487b7100000000000000000000000000000000000000000000000000000000600052602160045260246000fd5b8152505081525050915050919050565b600181815481106104c657600080fd5b90600052602060002090600802016000915090508060000160009054906101000a900473ffffffffffffffffffffffffffffffffffffffff169080600101805461050f90611a5d565b80601f016020809104026020016040519081016040528092919081815260200182805461053b90611a5d565b80156105885780601f1061055d57610100808354040283529160200191610588565b820191906000526020600020905b81548152906001019060200180831161056b57829003601f168201915b50505050509080600201805461059d90611a5d565b80601f01602080910402602001604051908101604052809291908181526020018280546105c990611a5d565b80156106165780601f106105eb57610100808354040283529160200191610616565b820191906000526020600020905b8154815290600101906020018083116105f957829003601f168201915b5050505050908060030154908060040154908060050160405180606001604052908160008201548152602001600182015481526020016002820160009054906101000a900460ff166004811115610696577f4e487b7100000000000000000000000000000000000000000000000000000000600052602160045260246000fd5b60048111156106ce577f4e487b7100000000000000000000000000000000000000000000000000000000600052602160045260246000fd5b81525050905086565b60026020528060005260406000206000915090508060000160009054906101000a900473ffffffffffffffffffffffffffffffffffffffff169080600101805461072090611a5d565b80601f016020809104026020016040519081016040528092919081815260200182805461074c90611a5d565b80156107995780601f1061076e57610100808354040283529160200191610799565b820191906000526020600020905b81548152906001019060200180831161077c57829003601f168201915b5050505050908060020180546107ae90611a5d565b80601f01602080910402602001604051908101604052809291908181526020018280546107da90611a5d565b80156108275780601f106107fc57610100808354040283529160200191610827565b820191906000526020600020905b81548152906001019060200180831161080a57829003601f168201915b5050505050908060030154908060040154908060050160405180606001604052908160008201548152602001600182015481526020016002820160009054906101000a900460ff1660048111156108a7577f4e487b7100000000000000000000000000000000000000000000000000000000600052602160045260246000fd5b60048111156108df577f4e487b7100000000000000000000000000000000000000000000000000000000600052602160045260246000fd5b81525050905086565b60006003836040516108fa9190611757565b908152602001604051809103902060009054906101000a900473ffffffffffffffffffffffffffffffffffffffff169050600260008273ffffffffffffffffffffffffffffffffffffffff1673ffffffffffffffffffffffffffffffffffffffff1681526020019081526020016000206005016001015482146109b2576040517f08c379a00000000000000000000000000000000000000000000000000000000081526004016109a990611814565b60405180910390fd5b6000600260008373ffffffffffffffffffffffffffffffffffffffff1673ffffffffffffffffffffffffffffffffffffffff1681526020019081526020016000206005016000015442610a059190611968565b90506032811115610ad5577ff6817873a4771e1c87db5782f85016e0685a5753931d4835e77b2c8eb73e3c9f81600260008573ffffffffffffffffffffffffffffffffffffffff1673ffffffffffffffffffffffffffffffffffffffff16815260200190815260200160002060040154604051610a839291906118b1565b60405180910390a1610352600260008473ffffffffffffffffffffffffffffffffffffffff1673ffffffffffffffffffffffffffffffffffffffff168152602001908152602001600020600401819055505b6003600260008473ffffffffffffffffffffffffffffffffffffffff1673ffffffffffffffffffffffffffffffffffffffff16815260200190815260200160002060050160020160006101000a81548160ff02191690836004811115610b64577f4e487b7100000000000000000000000000000000000000000000000000000000600052602160045260246000fd5b021790555050505050565b6003818051602081018201805184825260208301602085012081835280955050505050506000915054906101000a900473ffffffffffffffffffffffffffffffffffffffff1681565b60006040518060600160405280600081526020016000815260200160006004811115610c0d577f4e487b7100000000000000000000000000000000000000000000000000000000600052602160045260246000fd5b815250905060006040518060c001604052808773ffffffffffffffffffffffffffffffffffffffff1681526020018681526020018581526020018481526020016103e88152602001838152509050600181908060018154018082558091505060019003906000526020600020906008020160009091909190915060008201518160000160006101000a81548173ffffffffffffffffffffffffffffffffffffffff021916908373ffffffffffffffffffffffffffffffffffffffff1602179055506020820151816001019080519060200190610cea929190611158565b506040820151816002019080519060200190610d07929190611158565b50606082015181600301556080820151816004015560a082015181600501600082015181600001556020820151816001015560408201518160020160006101000a81548160ff02191690836004811115610d8a577f4e487b7100000000000000000000000000000000000000000000000000000000600052602160045260246000fd5b02179055505050505080600260003373ffffffffffffffffffffffffffffffffffffffff1673ffffffffffffffffffffffffffffffffffffffff16815260200190815260200160002060008201518160000160006101000a81548173ffffffffffffffffffffffffffffffffffffffff021916908373ffffffffffffffffffffffffffffffffffffffff1602179055506020820151816001019080519060200190610e36929190611158565b506040820151816002019080519060200190610e53929190611158565b50606082015181600301556080820151816004015560a082015181600501600082015181600001556020820151816001015560408201518160020160006101000a81548160ff02191690836004811115610ed6577f4e487b7100000000000000000000000000000000000000000000000000000000600052602160045260246000fd5b0217905550505090505033600386604051610ef19190611757565b908152602001604051809103902060006101000a81548173ffffffffffffffffffffffffffffffffffffffff021916908373ffffffffffffffffffffffffffffffffffffffff160217905550505050505050565b6000804290506000600386604051610f5d9190611757565b908152602001604051809103902060009054906101000a900473ffffffffffffffffffffffffffffffffffffffff1690506102bc600260008373ffffffffffffffffffffffffffffffffffffffff1673ffffffffffffffffffffffffffffffffffffffff1681526020019081526020016000206004015411611014576040517f08c379a000000000000000000000000000000000000000000000000000000000815260040161100b90611834565b60405180910390fd5b6103e88410611058576040517f08c379a000000000000000000000000000000000000000000000000000000000815260040161104f90611854565b60405180910390fd5b83600260008373ffffffffffffffffffffffffffffffffffffffff1673ffffffffffffffffffffffffffffffffffffffff1681526020019081526020016000206005016001018190555081600260008373ffffffffffffffffffffffffffffffffffffffff1673ffffffffffffffffffffffffffffffffffffffff168152602001908152602001600020600501600001819055506001925050509392505050565b6000600180549050905090565b6040518060c00160405280600073ffffffffffffffffffffffffffffffffffffffff168152602001606081526020016060815260200160008152602001600081526020016111526111de565b81525090565b82805461116490611a5d565b90600052602060002090601f01602090048101928261118657600085556111cd565b82601f1061119f57805160ff19168380011785556111cd565b828001600101855582156111cd579182015b828111156111cc5782518255916020019190600101906111b1565b5b5090506111da9190611237565b5090565b6040518060600160405280600081526020016000815260200160006004811115611231577f4e487b7100000000000000000000000000000000000000000000000000000000600052602160045260246000fd5b81525090565b5b80821115611250576000816000905550600101611238565b5090565b6000611267611262846118ff565b6118da565b90508281526020810184848401111561127f57600080fd5b61128a848285611a1b565b509392505050565b6000813590506112a181611c68565b92915050565b6000813590506112b681611c7f565b92915050565b600082601f8301126112cd57600080fd5b81356112dd848260208601611254565b91505092915050565b6000813590506112f581611c96565b92915050565b60006020828403121561130d57600080fd5b600061131b84828501611292565b91505092915050565b6000806000806080858703121561133a57600080fd5b600061134887828801611292565b945050602085013567ffffffffffffffff81111561136557600080fd5b611371878288016112bc565b935050604085013567ffffffffffffffff81111561138e57600080fd5b61139a878288016112bc565b92505060606113ab878288016112e6565b91505092959194509250565b6000602082840312156113c957600080fd5b600082013567ffffffffffffffff8111156113e357600080fd5b6113ef848285016112bc565b91505092915050565b60008060006060848603121561140d57600080fd5b600084013567ffffffffffffffff81111561142757600080fd5b611433868287016112bc565b9350506020611444868287016112a7565b9250506040611455868287016112e6565b9150509250925092565b6000806040838503121561147257600080fd5b600083013567ffffffffffffffff81111561148c57600080fd5b611498858286016112bc565b92505060206114a9858286016112e6565b9150509250929050565b6000602082840312156114c557600080fd5b60006114d3848285016112e6565b91505092915050565b6114e58161199c565b82525050565b6114f48161199c565b82525050565b611503816119c0565b82525050565b61151281611a09565b82525050565b600061152382611930565b61152d818561193b565b935061153d818560208601611a2a565b61154681611b7c565b840191505092915050565b600061155c82611930565b611566818561194c565b9350611576818560208601611a2a565b61157f81611b7c565b840191505092915050565b600061159582611930565b61159f818561195d565b93506115af818560208601611a2a565b80840191505092915050565b60006115c8601a8361194c565b91506115d382611b8d565b602082019050919050565b60006115eb602d8361194c565b91506115f682611bb6565b604082019050919050565b600061160e602b8361194c565b915061161982611c05565b604082019050919050565b60006101008301600083015161163d60008601826114dc565b50602083015184820360208601526116558282611518565b9150506040830151848203604086015261166f8282611518565b91505060608301516116846060860182611739565b5060808301516116976080860182611739565b5060a08301516116aa60a08601826116b5565b508091505092915050565b6060820160008201516116cb6000850182611739565b5060208201516116de6020850182611739565b5060408201516116f16040850182611509565b50505050565b60608201600082015161170d6000850182611739565b5060208201516117206020850182611739565b5060408201516117336040850182611509565b50505050565b611742816119ff565b82525050565b611751816119ff565b82525050565b6000611763828461158a565b915081905092915050565b600060208201905061178360008301846114eb565b92915050565b60006101008201905061179f60008301896114eb565b81810360208301526117b18188611551565b905081810360408301526117c58187611551565b90506117d46060830186611748565b6117e16080830185611748565b6117ee60a08301846116f7565b979650505050505050565b600060208201905061180e60008301846114fa565b92915050565b6000602082019050818103600083015261182d816115bb565b9050919050565b6000602082019050818103600083015261184d816115de565b9050919050565b6000602082019050818103600083015261186d81611601565b9050919050565b6000602082019050818103600083015261188e8184611624565b905092915050565b60006020820190506118ab6000830184611748565b92915050565b60006040820190506118c66000830185611748565b6118d36020830184611748565b9392505050565b60006118e46118f5565b90506118f08282611a8f565b919050565b6000604051905090565b600067ffffffffffffffff82111561191a57611919611b4d565b5b61192382611b7c565b9050602081019050919050565b600081519050919050565b600082825260208201905092915050565b600082825260208201905092915050565b600081905092915050565b6000611973826119ff565b915061197e836119ff565b92508282101561199157611990611ac0565b5b828203905092915050565b60006119a7826119df565b9050919050565b60006119b9826119df565b9050919050565b60008115159050919050565b60008190506119da82611c54565b919050565b600073ffffffffffffffffffffffffffffffffffffffff82169050919050565b6000819050919050565b6000611a14826119cc565b9050919050565b82818337600083830152505050565b60005b83811015611a48578082015181840152602081019050611a2d565b83811115611a57576000848401525b50505050565b60006002820490506001821680611a7557607f821691505b60208210811415611a8957611a88611b1e565b5b50919050565b611a9882611b7c565b810181811067ffffffffffffffff82111715611ab757611ab6611b4d565b5b80604052505050565b7f4e487b7100000000000000000000000000000000000000000000000000000000600052601160045260246000fd5b7f4e487b7100000000000000000000000000000000000000000000000000000000600052602160045260246000fd5b7f4e487b7100000000000000000000000000000000000000000000000000000000600052602260045260246000fd5b7f4e487b7100000000000000000000000000000000000000000000000000000000600052604160045260246000fd5b6000601f19601f8301169050919050565b7f506c6561736520706179207468652066756c6c20616d6f756e74000000000000600082015250565b7f55736572207368616c6c2068617665206372656469742073636f72652067726560008201527f61746572207468616e2037303000000000000000000000000000000000000000602082015250565b7f496e697469616c204c6f616e2063616e7420626520677265617465722074686160008201527f6e20313030302055534443000000000000000000000000000000000000000000602082015250565b60058110611c6557611c64611aef565b5b50565b611c718161199c565b8114611c7c57600080fd5b50565b611c88816119ae565b8114611c9357600080fd5b50565b611c9f816119ff565b8114611caa57600080fd5b5056fea26469706673582212203f66c03dd63c48949fd1b75f25d039978522bef6f2e1b0236204ecfda5abdb0d64736f6c63430008030033",
  "immutableReferences": {},
  "source": "pragma solidity ^0.8.3;\n\n\ncontract DAOContract {\n\n address owner;\n enum loanStatus { registered, requested, inprogress, paid, defaulted }\n\n struct userLoanDetails{\n     uint256 issuedDate;\n     uint256 issuedAmount;\n     loanStatus LoanStatus;\n }\n\n struct userDetails {\n     address userAddress;\n     string userName;\n     string userRegistrationTimestamp;\n     uint256 userId;\n     uint256 userCreditScore;\n     userLoanDetails userLoans;\n }\n\n userDetails[] public users;\n\n mapping ( address => userDetails) public userDetailsMapping;\n mapping ( string => address ) public getAddressFromName;\n \n modifier onlyOwner(){\n    require(msg.sender == owner);\n    _;\n}\n\nevent timeDiffEvent(uint256 _time , uint256 _userCreditScore);\n\nfunction registerUser(address _userAddress, string memory _userName, string memory _userRegistrationTimestamp, uint256 _userId) public {\n    userLoanDetails memory _info = userLoanDetails(0,0,loanStatus.registered);\n\n    userDetails memory x = userDetails(\n        _userAddress,\n        _userName,\n        _userRegistrationTimestamp,\n        _userId,\n        1000,\n        _info\n    );\n\n    users.push(x);\n    userDetailsMapping[msg.sender] = x;\n    getAddressFromName[_userName] = msg.sender;\n\n}\n\nfunction fetchNumberOfUsers() public view returns (uint256) {\n   return users.length;\n}\n\nfunction fetchUserByName(string memory _userName)  public view returns (userDetails memory ){\n    address contract_addr = getAddressFromName[_userName];\n    return userDetailsMapping[contract_addr];\n}\n\nfunction deposit(string memory _userName , uint256 _amount ) public {\n    address contract_addr = getAddressFromName[_userName];\n    // User can return the whole amount at once\n    require (_amount == userDetailsMapping[contract_addr].userLoans.issuedAmount,'Please pay the full amount');\n    uint256 timeDiff =  block.timestamp - userDetailsMapping[contract_addr].userLoans.issuedDate;\n\n    if ( timeDiff > 50 ){\n        emit timeDiffEvent ( timeDiff , userDetailsMapping[contract_addr].userCreditScore );\n        //Decrease user score is paid after deadline\n        userDetailsMapping[contract_addr].userCreditScore = 850;\n    }\n    userDetailsMapping[contract_addr].userLoans.LoanStatus = loanStatus.paid;\n}\n\nfunction requestFund(string memory _userName , address payable _to , uint256 _amount) public returns (bool) {\n    uint256 loanRequestTimestamp = block.timestamp;\n    address contract_addr = getAddressFromName[_userName];\n    // funds requested address should be diff from the requestor address\n    require ( userDetailsMapping[contract_addr].userCreditScore > 700,'User shall have credit score greater than 700');\n    //require ( userDetailsMapping[contract_addr].userLoans.LoanStatus == loanStatus.paid, 'Its required to pay back your previous loans');\n    require ( _amount < 1000, 'Initial Loan cant be greater than 1000 USDC');\n    userDetailsMapping[contract_addr].userLoans.issuedAmount = _amount;\n    userDetailsMapping[contract_addr].userLoans.issuedDate = loanRequestTimestamp;\n    return true;\n }\n}",
  "sourcePath": "/Users/sumitpatel/Documents/WORK/circle_hackathon/blockchain/contracts/DAOContract.sol",
  "compiler": {
    "name": "solc",
    "version": "0.8.3+commit.8d00100c.Emscripten.clang"
  },
  "schemaVersion": "3.4.3",
  "updatedAt": "2022-04-27T07:07:07.337Z",
  "networkType": "ethereum",
  "devdoc": {
    "kind": "dev",
    "methods": {},
    "version": 1
  },
  "userdoc": {
    "kind": "user",
    "methods": {},
    "version": 1
  }
}