{
  "contractName": "DAOContract",
  "abi": [
    {
      "anonymous": false,
      "inputs": [
        {
          "indexed": false,
          "internalType": "uint256",
          "name": "_time",
          "type": "uint256"
        },
        {
          "indexed": false,
          "internalType": "uint256",
          "name": "_userCreditScore",
          "type": "uint256"
        }
      ],
      "name": "timeDiffEvent",
      "type": "event"
    },
    {
      "inputs": [
        {
          "internalType": "string",
          "name": "",
          "type": "string"
        }
      ],
      "name": "getAddressFromName",
      "outputs": [
        {
          "internalType": "address",
          "name": "",
          "type": "address"
        }
      ],
      "stateMutability": "view",
      "type": "function",
      "constant": true
    },
    {
      "inputs": [
        {
          "internalType": "address",
          "name": "",
          "type": "address"
        }
      ],
      "name": "userDetailsMapping",
      "outputs": [
        {
          "internalType": "address",
          "name": "userAddress",
          "type": "address"
        },
        {
          "internalType": "string",
          "name": "userName",
          "type": "string"
        },
        {
          "internalType": "string",
          "name": "userRegistrationTimestamp",
          "type": "string"
        },
        {
          "internalType": "uint256",
          "name": "userId",
          "type": "uint256"
        },
        {
          "internalType": "uint256",
          "name": "userCreditScore",
          "type": "uint256"
        },
        {
          "components": [
            {
              "internalType": "uint256",
              "name": "issuedDate",
              "type": "uint256"
            },
            {
              "internalType": "uint256",
              "name": "issuedAmount",
              "type": "uint256"
            },
            {
              "internalType": "enum DAOContract.loanStatus",
              "name": "LoanStatus",
              "type": "uint8"
            }
          ],
          "internalType": "struct DAOContract.userLoanDetails",
          "name": "userLoans",
          "type": "tuple"
        }
      ],
      "stateMutability": "view",
      "type": "function",
      "constant": true
    },
    {
      "inputs": [
        {
          "internalType": "uint256",
          "name": "",
          "type": "uint256"
        }
      ],
      "name": "users",
      "outputs": [
        {
          "internalType": "address",
          "name": "userAddress",
          "type": "address"
        },
        {
          "internalType": "string",
          "name": "userName",
          "type": "string"
        },
        {
          "internalType": "string",
          "name": "userRegistrationTimestamp",
          "type": "string"
        },
        {
          "internalType": "uint256",
          "name": "userId",
          "type": "uint256"
        },
        {
          "internalType": "uint256",
          "name": "userCreditScore",
          "type": "uint256"
        },
        {
          "components": [
            {
              "internalType": "uint256",
              "name": "issuedDate",
              "type": "uint256"
            },
            {
              "internalType": "uint256",
              "name": "issuedAmount",
              "type": "uint256"
            },
            {
              "internalType": "enum DAOContract.loanStatus",
              "name": "LoanStatus",
              "type": "uint8"
            }
          ],
          "internalType": "struct DAOContract.userLoanDetails",
          "name": "userLoans",
          "type": "tuple"
        }
      ],
      "stateMutability": "view",
      "type": "function",
      "constant": true
    },
    {
      "inputs": [
        {
          "internalType": "address",
          "name": "_userAddress",
          "type": "address"
        },
        {
          "internalType": "string",
          "name": "_userName",
          "type": "string"
        },
        {
          "internalType": "string",
          "name": "_userRegistrationTimestamp",
          "type": "string"
        },
        {
          "internalType": "uint256",
          "name": "_userId",
          "type": "uint256"
        }
      ],
      "name": "registerUser",
      "outputs": [],
      "stateMutability": "nonpayable",
      "type": "function"
    },
    {
      "inputs": [],
      "name": "fetchNumberOfUsers",
      "outputs": [
        {
          "internalType": "uint256",
          "name": "",
          "type": "uint256"
        }
      ],
      "stateMutability": "view",
      "type": "function",
      "constant": true
    },
    {
      "inputs": [
        {
          "internalType": "string",
          "name": "_userName",
          "type": "string"
        }
      ],
      "name": "fetchUserByName",
      "outputs": [
        {
          "components": [
            {
              "internalType": "address",
              "name": "userAddress",
              "type": "address"
            },
            {
              "internalType": "string",
              "name": "userName",
              "type": "string"
            },
            {
              "internalType": "string",
              "name": "userRegistrationTimestamp",
              "type": "string"
            },
            {
              "internalType": "uint256",
              "name": "userId",
              "type": "uint256"
            },
            {
              "internalType": "uint256",
              "name": "userCreditScore",
              "type": "uint256"
            },
            {
              "components": [
                {
                  "internalType": "uint256",
                  "name": "issuedDate",
                  "type": "uint256"
                },
                {
                  "internalType": "uint256",
                  "name": "issuedAmount",
                  "type": "uint256"
                },
                {
                  "internalType": "enum DAOContract.loanStatus",
                  "name": "LoanStatus",
                  "type": "uint8"
                }
              ],
              "internalType": "struct DAOContract.userLoanDetails",
              "name": "userLoans",
              "type": "tuple"
            }
          ],
          "internalType": "struct DAOContract.userDetails",
          "name": "",
          "type": "tuple"
        }
      ],
      "stateMutability": "view",
      "type": "function",
      "constant": true
    },
    {
      "inputs": [
        {
          "internalType": "string",
          "name": "_userName",
          "type": "string"
        }
      ],
      "name": "deposit",
      "outputs": [],
      "stateMutability": "payable",
      "type": "function",
      "payable": true
    },
    {
      "inputs": [
        {
          "internalType": "string",
          "name": "_userName",
          "type": "string"
        },
        {
          "internalType": "address payable",
          "name": "_to",
          "type": "address"
        }
      ],
      "name": "requestFund",
      "outputs": [
        {
          "internalType": "bool",
          "name": "",
          "type": "bool"
        }
      ],
      "stateMutability": "payable",
      "type": "function",
      "payable": true
    }
  ],
  "bytecode": "0x608060405234801561001057600080fd5b50611d41806100206000396000f3fe60806040526004361061007a5760003560e01c80638e61514e1161004e5780638e61514e14610170578063a26e1186146101ad578063b57d63f5146101c9578063f0c3251a146101f25761007a565b8062e81ba41461007f57806322ef2bd0146100bc578063365b98b2146100ec5780635166608f1461012e575b600080fd5b34801561008b57600080fd5b506100a660048036038101906100a1919061147c565b61021d565b6040516100b391906118d2565b60405180910390f35b6100d660048036038101906100d191906114bd565b6104f7565b6040516100e39190611857565b60405180910390f35b3480156100f857600080fd5b50610113600480360381019061010e9190611511565b610730565b604051610125969594939291906117e7565b60405180910390f35b34801561013a57600080fd5b50610155600480360381019061015091906113c0565b610951565b604051610167969594939291906117e7565b60405180910390f35b34801561017c57600080fd5b506101976004803603810190610192919061147c565b610b62565b6040516101a491906117cc565b60405180910390f35b6101c760048036038101906101c2919061147c565b610bab565b005b3480156101d557600080fd5b506101f060048036038101906101eb91906113e9565b610e31565b005b3480156101fe57600080fd5b506102076111be565b60405161021491906118f4565b60405180910390f35b6102256111cb565b600060038360405161023791906117b5565b908152602001604051809103902060009054906101000a900473ffffffffffffffffffffffffffffffffffffffff169050600260008273ffffffffffffffffffffffffffffffffffffffff1673ffffffffffffffffffffffffffffffffffffffff1681526020019081526020016000206040518060c00160405290816000820160009054906101000a900473ffffffffffffffffffffffffffffffffffffffff1673ffffffffffffffffffffffffffffffffffffffff1673ffffffffffffffffffffffffffffffffffffffff16815260200160018201805461031890611abb565b80601f016020809104026020016040519081016040528092919081815260200182805461034490611abb565b80156103915780601f1061036657610100808354040283529160200191610391565b820191906000526020600020905b81548152906001019060200180831161037457829003601f168201915b505050505081526020016002820180546103aa90611abb565b80601f01602080910402602001604051908101604052809291908181526020018280546103d690611abb565b80156104235780601f106103f857610100808354040283529160200191610423565b820191906000526020600020905b81548152906001019060200180831161040657829003601f168201915b5050505050815260200160038201548152602001600482015481526020016005820160405180606001604052908160008201548152602001600182015481526020016002820160009054906101000a900460ff1660048111156104af577f4e487b7100000000000000000000000000000000000000000000000000000000600052602160045260246000fd5b60048111156104e7577f4e487b7100000000000000000000000000000000000000000000000000000000600052602160045260246000fd5b8152505081525050915050919050565b600080429050600060038560405161050f91906117b5565b908152602001604051809103902060009054906101000a900473ffffffffffffffffffffffffffffffffffffffff1690503373ffffffffffffffffffffffffffffffffffffffff168473ffffffffffffffffffffffffffffffffffffffff16141561057957600080fd5b6102bc600260008373ffffffffffffffffffffffffffffffffffffffff1673ffffffffffffffffffffffffffffffffffffffff16815260200190815260200160002060040154116105ff576040517f08c379a00000000000000000000000000000000000000000000000000000000081526004016105f690611892565b60405180910390fd5b678ac7230489e800003410610649576040517f08c379a0000000000000000000000000000000000000000000000000000000008152600401610640906118b2565b60405180910390fd5b34600260008373ffffffffffffffffffffffffffffffffffffffff1673ffffffffffffffffffffffffffffffffffffffff1681526020019081526020016000206005016001018190555081600260008373ffffffffffffffffffffffffffffffffffffffff1673ffffffffffffffffffffffffffffffffffffffff168152602001908152602001600020600501600001819055508373ffffffffffffffffffffffffffffffffffffffff166108fc349081150290604051600060405180830381858888f19350505050158015610723573d6000803e3d6000fd5b5060019250505092915050565b6001818154811061074057600080fd5b90600052602060002090600802016000915090508060000160009054906101000a900473ffffffffffffffffffffffffffffffffffffffff169080600101805461078990611abb565b80601f01602080910402602001604051908101604052809291908181526020018280546107b590611abb565b80156108025780601f106107d757610100808354040283529160200191610802565b820191906000526020600020905b8154815290600101906020018083116107e557829003601f168201915b50505050509080600201805461081790611abb565b80601f016020809104026020016040519081016040528092919081815260200182805461084390611abb565b80156108905780601f1061086557610100808354040283529160200191610890565b820191906000526020600020905b81548152906001019060200180831161087357829003601f168201915b5050505050908060030154908060040154908060050160405180606001604052908160008201548152602001600182015481526020016002820160009054906101000a900460ff166004811115610910577f4e487b7100000000000000000000000000000000000000000000000000000000600052602160045260246000fd5b6004811115610948577f4e487b7100000000000000000000000000000000000000000000000000000000600052602160045260246000fd5b81525050905086565b60026020528060005260406000206000915090508060000160009054906101000a900473ffffffffffffffffffffffffffffffffffffffff169080600101805461099a90611abb565b80601f01602080910402602001604051908101604052809291908181526020018280546109c690611abb565b8015610a135780601f106109e857610100808354040283529160200191610a13565b820191906000526020600020905b8154815290600101906020018083116109f657829003601f168201915b505050505090806002018054610a2890611abb565b80601f0160208091040260200160405190810160405280929190818152602001828054610a5490611abb565b8015610aa15780601f10610a7657610100808354040283529160200191610aa1565b820191906000526020600020905b815481529060010190602001808311610a8457829003601f168201915b5050505050908060030154908060040154908060050160405180606001604052908160008201548152602001600182015481526020016002820160009054906101000a900460ff166004811115610b21577f4e487b7100000000000000000000000000000000000000000000000000000000600052602160045260246000fd5b6004811115610b59577f4e487b7100000000000000000000000000000000000000000000000000000000600052602160045260246000fd5b81525050905086565b6003818051602081018201805184825260208301602085012081835280955050505050506000915054906101000a900473ffffffffffffffffffffffffffffffffffffffff1681565b6000600382604051610bbd91906117b5565b908152602001604051809103902060009054906101000a900473ffffffffffffffffffffffffffffffffffffffff169050600260008273ffffffffffffffffffffffffffffffffffffffff1673ffffffffffffffffffffffffffffffffffffffff168152602001908152602001600020600501600101543414610c75576040517f08c379a0000000000000000000000000000000000000000000000000000000008152600401610c6c90611872565b60405180910390fd5b6000600260008373ffffffffffffffffffffffffffffffffffffffff1673ffffffffffffffffffffffffffffffffffffffff1681526020019081526020016000206005016000015442610cc891906119c6565b90506032811115610d98577ff6817873a4771e1c87db5782f85016e0685a5753931d4835e77b2c8eb73e3c9f81600260008573ffffffffffffffffffffffffffffffffffffffff1673ffffffffffffffffffffffffffffffffffffffff16815260200190815260200160002060040154604051610d4692919061190f565b60405180910390a1610352600260008473ffffffffffffffffffffffffffffffffffffffff1673ffffffffffffffffffffffffffffffffffffffff168152602001908152602001600020600401819055505b6003600260008473ffffffffffffffffffffffffffffffffffffffff1673ffffffffffffffffffffffffffffffffffffffff16815260200190815260200160002060050160020160006101000a81548160ff02191690836004811115610e27577f4e487b7100000000000000000000000000000000000000000000000000000000600052602160045260246000fd5b0217905550505050565b60006040518060600160405280600081526020016000815260200160006004811115610e86577f4e487b7100000000000000000000000000000000000000000000000000000000600052602160045260246000fd5b815250905060006040518060c001604052808773ffffffffffffffffffffffffffffffffffffffff1681526020018681526020018581526020018481526020016103e88152602001838152509050600181908060018154018082558091505060019003906000526020600020906008020160009091909190915060008201518160000160006101000a81548173ffffffffffffffffffffffffffffffffffffffff021916908373ffffffffffffffffffffffffffffffffffffffff1602179055506020820151816001019080519060200190610f6392919061121d565b506040820151816002019080519060200190610f8092919061121d565b50606082015181600301556080820151816004015560a082015181600501600082015181600001556020820151816001015560408201518160020160006101000a81548160ff02191690836004811115611003577f4e487b7100000000000000000000000000000000000000000000000000000000600052602160045260246000fd5b02179055505050505080600260003373ffffffffffffffffffffffffffffffffffffffff1673ffffffffffffffffffffffffffffffffffffffff16815260200190815260200160002060008201518160000160006101000a81548173ffffffffffffffffffffffffffffffffffffffff021916908373ffffffffffffffffffffffffffffffffffffffff16021790555060208201518160010190805190602001906110af92919061121d565b5060408201518160020190805190602001906110cc92919061121d565b50606082015181600301556080820151816004015560a082015181600501600082015181600001556020820151816001015560408201518160020160006101000a81548160ff0219169083600481111561114f577f4e487b7100000000000000000000000000000000000000000000000000000000600052602160045260246000fd5b021790555050509050503360038660405161116a91906117b5565b908152602001604051809103902060006101000a81548173ffffffffffffffffffffffffffffffffffffffff021916908373ffffffffffffffffffffffffffffffffffffffff160217905550505050505050565b6000600180549050905090565b6040518060c00160405280600073ffffffffffffffffffffffffffffffffffffffff168152602001606081526020016060815260200160008152602001600081526020016112176112a3565b81525090565b82805461122990611abb565b90600052602060002090601f01602090048101928261124b5760008555611292565b82601f1061126457805160ff1916838001178555611292565b82800160010185558215611292579182015b82811115611291578251825591602001919060010190611276565b5b50905061129f91906112fc565b5090565b60405180606001604052806000815260200160008152602001600060048111156112f6577f4e487b7100000000000000000000000000000000000000000000000000000000600052602160045260246000fd5b81525090565b5b808211156113155760008160009055506001016112fd565b5090565b600061132c6113278461195d565b611938565b90508281526020810184848401111561134457600080fd5b61134f848285611a79565b509392505050565b60008135905061136681611cc6565b92915050565b60008135905061137b81611cdd565b92915050565b600082601f83011261139257600080fd5b81356113a2848260208601611319565b91505092915050565b6000813590506113ba81611cf4565b92915050565b6000602082840312156113d257600080fd5b60006113e084828501611357565b91505092915050565b600080600080608085870312156113ff57600080fd5b600061140d87828801611357565b945050602085013567ffffffffffffffff81111561142a57600080fd5b61143687828801611381565b935050604085013567ffffffffffffffff81111561145357600080fd5b61145f87828801611381565b9250506060611470878288016113ab565b91505092959194509250565b60006020828403121561148e57600080fd5b600082013567ffffffffffffffff8111156114a857600080fd5b6114b484828501611381565b91505092915050565b600080604083850312156114d057600080fd5b600083013567ffffffffffffffff8111156114ea57600080fd5b6114f685828601611381565b92505060206115078582860161136c565b9150509250929050565b60006020828403121561152357600080fd5b6000611531848285016113ab565b91505092915050565b611543816119fa565b82525050565b611552816119fa565b82525050565b61156181611a1e565b82525050565b61157081611a67565b82525050565b60006115818261198e565b61158b8185611999565b935061159b818560208601611a88565b6115a481611bda565b840191505092915050565b60006115ba8261198e565b6115c481856119aa565b93506115d4818560208601611a88565b6115dd81611bda565b840191505092915050565b60006115f38261198e565b6115fd81856119bb565b935061160d818560208601611a88565b80840191505092915050565b6000611626601a836119aa565b915061163182611beb565b602082019050919050565b6000611649602d836119aa565b915061165482611c14565b604082019050919050565b600061166c602a836119aa565b915061167782611c63565b604082019050919050565b60006101008301600083015161169b600086018261153a565b50602083015184820360208601526116b38282611576565b915050604083015184820360408601526116cd8282611576565b91505060608301516116e26060860182611797565b5060808301516116f56080860182611797565b5060a083015161170860a0860182611713565b508091505092915050565b6060820160008201516117296000850182611797565b50602082015161173c6020850182611797565b50604082015161174f6040850182611567565b50505050565b60608201600082015161176b6000850182611797565b50602082015161177e6020850182611797565b5060408201516117916040850182611567565b50505050565b6117a081611a5d565b82525050565b6117af81611a5d565b82525050565b60006117c182846115e8565b915081905092915050565b60006020820190506117e16000830184611549565b92915050565b6000610100820190506117fd6000830189611549565b818103602083015261180f81886115af565b9050818103604083015261182381876115af565b905061183260608301866117a6565b61183f60808301856117a6565b61184c60a0830184611755565b979650505050505050565b600060208201905061186c6000830184611558565b92915050565b6000602082019050818103600083015261188b81611619565b9050919050565b600060208201905081810360008301526118ab8161163c565b9050919050565b600060208201905081810360008301526118cb8161165f565b9050919050565b600060208201905081810360008301526118ec8184611682565b905092915050565b600060208201905061190960008301846117a6565b92915050565b600060408201905061192460008301856117a6565b61193160208301846117a6565b9392505050565b6000611942611953565b905061194e8282611aed565b919050565b6000604051905090565b600067ffffffffffffffff82111561197857611977611bab565b5b61198182611bda565b9050602081019050919050565b600081519050919050565b600082825260208201905092915050565b600082825260208201905092915050565b600081905092915050565b60006119d182611a5d565b91506119dc83611a5d565b9250828210156119ef576119ee611b1e565b5b828203905092915050565b6000611a0582611a3d565b9050919050565b6000611a1782611a3d565b9050919050565b60008115159050919050565b6000819050611a3882611cb2565b919050565b600073ffffffffffffffffffffffffffffffffffffffff82169050919050565b6000819050919050565b6000611a7282611a2a565b9050919050565b82818337600083830152505050565b60005b83811015611aa6578082015181840152602081019050611a8b565b83811115611ab5576000848401525b50505050565b60006002820490506001821680611ad357607f821691505b60208210811415611ae757611ae6611b7c565b5b50919050565b611af682611bda565b810181811067ffffffffffffffff82111715611b1557611b14611bab565b5b80604052505050565b7f4e487b7100000000000000000000000000000000000000000000000000000000600052601160045260246000fd5b7f4e487b7100000000000000000000000000000000000000000000000000000000600052602160045260246000fd5b7f4e487b7100000000000000000000000000000000000000000000000000000000600052602260045260246000fd5b7f4e487b7100000000000000000000000000000000000000000000000000000000600052604160045260246000fd5b6000601f19601f8301169050919050565b7f506c6561736520706179207468652066756c6c20616d6f756e74000000000000600082015250565b7f55736572207368616c6c2068617665206372656469742073636f72652067726560008201527f61746572207468616e2037303000000000000000000000000000000000000000602082015250565b7f496e697469616c204c6f616e2063616e7420626520677265617465722074686160008201527f6e20313020657468657200000000000000000000000000000000000000000000602082015250565b60058110611cc357611cc2611b4d565b5b50565b611ccf816119fa565b8114611cda57600080fd5b50565b611ce681611a0c565b8114611cf157600080fd5b50565b611cfd81611a5d565b8114611d0857600080fd5b5056fea26469706673582212205a84a47cc0298d35f12c23ecb20666072539b974c376368f889642c5e6fe99c764736f6c63430008030033",
  "immutableReferences": {},
  "source": "pragma solidity ^0.8.3;\n\n\ncontract DAOContract {\n\n address owner;\n enum loanStatus { registered, requested, inprogress, paid, defaulted }\n\n struct userLoanDetails{\n     uint256 issuedDate;\n     uint256 issuedAmount;\n     loanStatus LoanStatus;\n }\n\n struct userDetails {\n     address userAddress;\n     string userName;\n     string userRegistrationTimestamp;\n     uint256 userId;\n     uint256 userCreditScore;\n     userLoanDetails userLoans;\n }\n\n userDetails[] public users;\n\n mapping ( address => userDetails) public userDetailsMapping;\n mapping ( string => address ) public getAddressFromName;\n \n modifier onlyOwner(){\n    require(msg.sender == owner);\n    _;\n}\n\nevent timeDiffEvent(uint256 _time , uint256 _userCreditScore);\n\nfunction registerUser(address _userAddress, string memory _userName, string memory _userRegistrationTimestamp, uint256 _userId) public {\n    userLoanDetails memory _info = userLoanDetails(0,0,loanStatus.registered);\n\n    userDetails memory x = userDetails(\n        _userAddress,\n        _userName,\n        _userRegistrationTimestamp,\n        _userId,\n        1000,\n        _info\n    );\n\n    users.push(x);\n    userDetailsMapping[msg.sender] = x;\n    getAddressFromName[_userName] = msg.sender;\n\n}\n\nfunction fetchNumberOfUsers() public view returns (uint256) {\n   return users.length;\n}\n\nfunction fetchUserByName(string memory _userName)  public view returns (userDetails memory ){\n    address contract_addr = getAddressFromName[_userName];\n    return userDetailsMapping[contract_addr];\n}\n\nfunction deposit(string memory _userName ) payable public {\n    address contract_addr = getAddressFromName[_userName];\n    // User can return the whole amount at once\n    require (msg.value == userDetailsMapping[contract_addr].userLoans.issuedAmount,'Please pay the full amount');\n    uint256 timeDiff =  block.timestamp - userDetailsMapping[contract_addr].userLoans.issuedDate;\n\n    if ( timeDiff > 50 ){\n        emit timeDiffEvent ( timeDiff , userDetailsMapping[contract_addr].userCreditScore );\n        //Decrease user score is paid after deadline\n        userDetailsMapping[contract_addr].userCreditScore = 850;\n    }\n    userDetailsMapping[contract_addr].userLoans.LoanStatus = loanStatus.paid;\n}\n\nfunction requestFund(string memory _userName , address payable _to ) public payable returns (bool) {\n    uint256 loanRequestTimestamp = block.timestamp;\n    address contract_addr = getAddressFromName[_userName];\n    // funds requested address should be diff from the requestor address\n    require ( _to != msg.sender);\n    require ( userDetailsMapping[contract_addr].userCreditScore > 700,'User shall have credit score greater than 700');\n    //require ( userDetailsMapping[contract_addr].userLoans.LoanStatus == loanStatus.paid, 'Its required to pay back your previous loans');\n    require ( msg.value < 10 ether, 'Initial Loan cant be greater than 10 ether');\n    userDetailsMapping[contract_addr].userLoans.issuedAmount = msg.value;\n    userDetailsMapping[contract_addr].userLoans.issuedDate = loanRequestTimestamp;\n    _to.transfer(msg.value);\n    return true;\n }\n}",
  "sourcePath": "/Users/sumitpatel/Documents/WORK/circle_hackathon/blockchain/contracts/DAOContract.sol",
  "compiler": {
    "name": "solc",
    "version": "0.8.3+commit.8d00100c.Emscripten.clang"
  },
  "schemaVersion": "3.4.3",
  "updatedAt": "2022-04-25T08:30:19.335Z",
  "networkType": "ethereum",
  "devdoc": {
    "kind": "dev",
    "methods": {},
    "version": 1
  },
  "userdoc": {
    "kind": "user",
    "methods": {},
    "version": 1
  }
}