{
  "contractName": "DAOContract",
  "abi": [
    {
      "inputs": [
        {
          "internalType": "string",
          "name": "",
          "type": "string"
        }
      ],
      "name": "getAddressFromName",
      "outputs": [
        {
          "internalType": "address",
          "name": "",
          "type": "address"
        }
      ],
      "stateMutability": "view",
      "type": "function"
    },
    {
      "inputs": [
        {
          "internalType": "address",
          "name": "",
          "type": "address"
        }
      ],
      "name": "userDetailsMapping",
      "outputs": [
        {
          "internalType": "address",
          "name": "userAddress",
          "type": "address"
        },
        {
          "internalType": "string",
          "name": "userName",
          "type": "string"
        },
        {
          "internalType": "string",
          "name": "userRegistrationTimestamp",
          "type": "string"
        },
        {
          "internalType": "uint256",
          "name": "userId",
          "type": "uint256"
        },
        {
          "internalType": "uint256",
          "name": "userCreditScore",
          "type": "uint256"
        }
      ],
      "stateMutability": "view",
      "type": "function"
    },
    {
      "inputs": [
        {
          "internalType": "uint256",
          "name": "",
          "type": "uint256"
        }
      ],
      "name": "users",
      "outputs": [
        {
          "internalType": "address",
          "name": "userAddress",
          "type": "address"
        },
        {
          "internalType": "string",
          "name": "userName",
          "type": "string"
        },
        {
          "internalType": "string",
          "name": "userRegistrationTimestamp",
          "type": "string"
        },
        {
          "internalType": "uint256",
          "name": "userId",
          "type": "uint256"
        },
        {
          "internalType": "uint256",
          "name": "userCreditScore",
          "type": "uint256"
        }
      ],
      "stateMutability": "view",
      "type": "function"
    },
    {
      "inputs": [
        {
          "internalType": "address",
          "name": "_userAddress",
          "type": "address"
        },
        {
          "internalType": "string",
          "name": "_userName",
          "type": "string"
        },
        {
          "internalType": "string",
          "name": "_userRegistrationTimestamp",
          "type": "string"
        },
        {
          "internalType": "uint256",
          "name": "_userId",
          "type": "uint256"
        },
        {
          "internalType": "uint256",
          "name": "_userCreditScore",
          "type": "uint256"
        }
      ],
      "name": "registerUser",
      "outputs": [],
      "stateMutability": "nonpayable",
      "type": "function"
    },
    {
      "inputs": [],
      "name": "fetchNumberOfUsers",
      "outputs": [
        {
          "internalType": "uint256",
          "name": "",
          "type": "uint256"
        }
      ],
      "stateMutability": "view",
      "type": "function"
    },
    {
      "inputs": [
        {
          "internalType": "string",
          "name": "_userName",
          "type": "string"
        }
      ],
      "name": "fetchUserByName",
      "outputs": [
        {
          "components": [
            {
              "internalType": "address",
              "name": "userAddress",
              "type": "address"
            },
            {
              "internalType": "string",
              "name": "userName",
              "type": "string"
            },
            {
              "internalType": "string",
              "name": "userRegistrationTimestamp",
              "type": "string"
            },
            {
              "internalType": "uint256",
              "name": "userId",
              "type": "uint256"
            },
            {
              "internalType": "uint256",
              "name": "userCreditScore",
              "type": "uint256"
            }
          ],
          "internalType": "struct DAOContract.userDetails",
          "name": "",
          "type": "tuple"
        }
      ],
      "stateMutability": "view",
      "type": "function"
    },
    {
      "inputs": [],
      "name": "deposit",
      "outputs": [],
      "stateMutability": "payable",
      "type": "function"
    },
    {
      "inputs": [
        {
          "internalType": "string",
          "name": "_userName",
          "type": "string"
        },
        {
          "internalType": "address payable",
          "name": "_to",
          "type": "address"
        }
      ],
      "name": "requestFund",
      "outputs": [
        {
          "internalType": "bool",
          "name": "",
          "type": "bool"
        }
      ],
      "stateMutability": "payable",
      "type": "function"
    }
  ],
  "bytecode": "0x608060405234801561001057600080fd5b50611279806100206000396000f3fe60806040526004361061007a5760003560e01c80638e61514e1161004e5780638e61514e1461016e578063a98df7b8146101ab578063d0e30db0146101d4578063f0c3251a146101de5761007a565b8062e81ba41461007f57806322ef2bd0146100bc578063365b98b2146100ec5780635166608f1461012d575b600080fd5b34801561008b57600080fd5b506100a660048036038101906100a19190610cee565b610209565b6040516100b39190610fc5565b60405180910390f35b6100d660048036038101906100d19190610d2f565b610434565b6040516100e39190610faa565b60405180910390f35b3480156100f857600080fd5b50610113600480360381019061010e9190610d83565b61051a565b604051610124959493929190610f49565b60405180910390f35b34801561013957600080fd5b50610154600480360381019061014f9190610c1e565b610690565b604051610165959493929190610f49565b60405180910390f35b34801561017a57600080fd5b5061019560048036038101906101909190610cee565b6107f6565b6040516101a29190610f2e565b60405180910390f35b3480156101b757600080fd5b506101d260048036038101906101cd9190610c47565b61083f565b005b6101dc610a80565b005b3480156101ea57600080fd5b506101f3610a82565b6040516102009190610fe7565b60405180910390f35b610211610a8f565b60006003836040516102239190610f17565b908152602001604051809103902060009054906101000a900473ffffffffffffffffffffffffffffffffffffffff169050600260008273ffffffffffffffffffffffffffffffffffffffff1673ffffffffffffffffffffffffffffffffffffffff1681526020019081526020016000206040518060a00160405290816000820160009054906101000a900473ffffffffffffffffffffffffffffffffffffffff1673ffffffffffffffffffffffffffffffffffffffff1673ffffffffffffffffffffffffffffffffffffffff1681526020016001820180546103049061112c565b80601f01602080910402602001604051908101604052809291908181526020018280546103309061112c565b801561037d5780601f106103525761010080835404028352916020019161037d565b820191906000526020600020905b81548152906001019060200180831161036057829003601f168201915b505050505081526020016002820180546103969061112c565b80601f01602080910402602001604051908101604052809291908181526020018280546103c29061112c565b801561040f5780601f106103e45761010080835404028352916020019161040f565b820191906000526020600020905b8154815290600101906020018083116103f257829003601f168201915b5050505050815260200160038201548152602001600482015481525050915050919050565b6000806003846040516104479190610f17565b908152602001604051809103902060009054906101000a900473ffffffffffffffffffffffffffffffffffffffff1690506102bc600260008373ffffffffffffffffffffffffffffffffffffffff1673ffffffffffffffffffffffffffffffffffffffff16815260200190815260200160002060040154116104c857600080fd5b8273ffffffffffffffffffffffffffffffffffffffff166108fc349081150290604051600060405180830381858888f1935050505015801561050e573d6000803e3d6000fd5b50600191505092915050565b6001818154811061052a57600080fd5b90600052602060002090600502016000915090508060000160009054906101000a900473ffffffffffffffffffffffffffffffffffffffff16908060010180546105739061112c565b80601f016020809104026020016040519081016040528092919081815260200182805461059f9061112c565b80156105ec5780601f106105c1576101008083540402835291602001916105ec565b820191906000526020600020905b8154815290600101906020018083116105cf57829003601f168201915b5050505050908060020180546106019061112c565b80601f016020809104026020016040519081016040528092919081815260200182805461062d9061112c565b801561067a5780601f1061064f5761010080835404028352916020019161067a565b820191906000526020600020905b81548152906001019060200180831161065d57829003601f168201915b5050505050908060030154908060040154905085565b60026020528060005260406000206000915090508060000160009054906101000a900473ffffffffffffffffffffffffffffffffffffffff16908060010180546106d99061112c565b80601f01602080910402602001604051908101604052809291908181526020018280546107059061112c565b80156107525780601f1061072757610100808354040283529160200191610752565b820191906000526020600020905b81548152906001019060200180831161073557829003601f168201915b5050505050908060020180546107679061112c565b80601f01602080910402602001604051908101604052809291908181526020018280546107939061112c565b80156107e05780601f106107b5576101008083540402835291602001916107e0565b820191906000526020600020905b8154815290600101906020018083116107c357829003601f168201915b5050505050908060030154908060040154905085565b6003818051602081018201805184825260208301602085012081835280955050505050506000915054906101000a900473ffffffffffffffffffffffffffffffffffffffff1681565b60006040518060a001604052808773ffffffffffffffffffffffffffffffffffffffff168152602001868152602001858152602001848152602001838152509050600181908060018154018082558091505060019003906000526020600020906005020160009091909190915060008201518160000160006101000a81548173ffffffffffffffffffffffffffffffffffffffff021916908373ffffffffffffffffffffffffffffffffffffffff160217905550602082015181600101908051906020019061090f929190610ad4565b50604082015181600201908051906020019061092c929190610ad4565b506060820151816003015560808201518160040155505080600260003373ffffffffffffffffffffffffffffffffffffffff1673ffffffffffffffffffffffffffffffffffffffff16815260200190815260200160002060008201518160000160006101000a81548173ffffffffffffffffffffffffffffffffffffffff021916908373ffffffffffffffffffffffffffffffffffffffff16021790555060208201518160010190805190602001906109e6929190610ad4565b506040820151816002019080519060200190610a03929190610ad4565b50606082015181600301556080820151816004015590505033600386604051610a2c9190610f17565b908152602001604051809103902060006101000a81548173ffffffffffffffffffffffffffffffffffffffff021916908373ffffffffffffffffffffffffffffffffffffffff160217905550505050505050565b565b6000600180549050905090565b6040518060a00160405280600073ffffffffffffffffffffffffffffffffffffffff168152602001606081526020016060815260200160008152602001600081525090565b828054610ae09061112c565b90600052602060002090601f016020900481019282610b025760008555610b49565b82601f10610b1b57805160ff1916838001178555610b49565b82800160010185558215610b49579182015b82811115610b48578251825591602001919060010190610b2d565b5b509050610b569190610b5a565b5090565b5b80821115610b73576000816000905550600101610b5b565b5090565b6000610b8a610b8584611027565b611002565b905082815260208101848484011115610ba257600080fd5b610bad8482856110ea565b509392505050565b600081359050610bc4816111fe565b92915050565b600081359050610bd981611215565b92915050565b600082601f830112610bf057600080fd5b8135610c00848260208601610b77565b91505092915050565b600081359050610c188161122c565b92915050565b600060208284031215610c3057600080fd5b6000610c3e84828501610bb5565b91505092915050565b600080600080600060a08688031215610c5f57600080fd5b6000610c6d88828901610bb5565b955050602086013567ffffffffffffffff811115610c8a57600080fd5b610c9688828901610bdf565b945050604086013567ffffffffffffffff811115610cb357600080fd5b610cbf88828901610bdf565b9350506060610cd088828901610c09565b9250506080610ce188828901610c09565b9150509295509295909350565b600060208284031215610d0057600080fd5b600082013567ffffffffffffffff811115610d1a57600080fd5b610d2684828501610bdf565b91505092915050565b60008060408385031215610d4257600080fd5b600083013567ffffffffffffffff811115610d5c57600080fd5b610d6885828601610bdf565b9250506020610d7985828601610bca565b9150509250929050565b600060208284031215610d9557600080fd5b6000610da384828501610c09565b91505092915050565b610db581611090565b82525050565b610dc481611090565b82525050565b610dd3816110b4565b82525050565b6000610de482611058565b610dee8185611063565b9350610dfe8185602086016110f9565b610e07816111ed565b840191505092915050565b6000610e1d82611058565b610e278185611074565b9350610e378185602086016110f9565b610e40816111ed565b840191505092915050565b6000610e5682611058565b610e608185611085565b9350610e708185602086016110f9565b80840191505092915050565b600060a083016000830151610e946000860182610dac565b5060208301518482036020860152610eac8282610dd9565b91505060408301518482036040860152610ec68282610dd9565b9150506060830151610edb6060860182610ef9565b506080830151610eee6080860182610ef9565b508091505092915050565b610f02816110e0565b82525050565b610f11816110e0565b82525050565b6000610f238284610e4b565b915081905092915050565b6000602082019050610f436000830184610dbb565b92915050565b600060a082019050610f5e6000830188610dbb565b8181036020830152610f708187610e12565b90508181036040830152610f848186610e12565b9050610f936060830185610f08565b610fa06080830184610f08565b9695505050505050565b6000602082019050610fbf6000830184610dca565b92915050565b60006020820190508181036000830152610fdf8184610e7c565b905092915050565b6000602082019050610ffc6000830184610f08565b92915050565b600061100c61101d565b9050611018828261115e565b919050565b6000604051905090565b600067ffffffffffffffff821115611042576110416111be565b5b61104b826111ed565b9050602081019050919050565b600081519050919050565b600082825260208201905092915050565b600082825260208201905092915050565b600081905092915050565b600061109b826110c0565b9050919050565b60006110ad826110c0565b9050919050565b60008115159050919050565b600073ffffffffffffffffffffffffffffffffffffffff82169050919050565b6000819050919050565b82818337600083830152505050565b60005b838110156111175780820151818401526020810190506110fc565b83811115611126576000848401525b50505050565b6000600282049050600182168061114457607f821691505b602082108114156111585761115761118f565b5b50919050565b611167826111ed565b810181811067ffffffffffffffff82111715611186576111856111be565b5b80604052505050565b7f4e487b7100000000000000000000000000000000000000000000000000000000600052602260045260246000fd5b7f4e487b7100000000000000000000000000000000000000000000000000000000600052604160045260246000fd5b6000601f19601f8301169050919050565b61120781611090565b811461121257600080fd5b50565b61121e816110a2565b811461122957600080fd5b50565b611235816110e0565b811461124057600080fd5b5056fea2646970667358221220685968760869e715c5f7a8a5e14d398808890743a134f22bb745df4941fb52d464736f6c63430008030033",
  "immutableReferences": {},
  "source": "pragma solidity ^0.8.3;\n\n\ncontract DAOContract {\n\n address owner;\n\n struct userDetails {\n     address userAddress;\n     string userName;\n     string userRegistrationTimestamp;\n     uint256 userId;\n     uint256 userCreditScore;\n }\n\n userDetails[] public users;\n\n mapping ( address => userDetails) public userDetailsMapping;\n mapping ( string => address ) public getAddressFromName;\n \n modifier onlyOwner(){\n    require(msg.sender == owner);\n    _;\n}\n\nfunction registerUser(address _userAddress, string memory _userName, string memory _userRegistrationTimestamp, uint256 _userId, uint256 _userCreditScore) public {\n    userDetails memory x = userDetails(\n        _userAddress,\n        _userName,\n        _userRegistrationTimestamp,\n        _userId,\n        _userCreditScore\n    );\n\n    users.push(x);\n    userDetailsMapping[msg.sender] = x;\n    getAddressFromName[_userName] = msg.sender;\n\n}\n\nfunction fetchNumberOfUsers() public view returns (uint256) {\n   return users.length;\n}\n\nfunction fetchUserByName(string memory _userName)  public view returns (userDetails memory ){\n    address contract_addr = getAddressFromName[_userName];\n    return userDetailsMapping[contract_addr];\n}\n\nfunction deposit() payable public {}\n\nfunction requestFund(string memory _userName , address payable _to ) public payable returns (bool) {\n    //find user\n    address contract_addr = getAddressFromName[_userName];\n    require ( userDetailsMapping[contract_addr].userCreditScore > 700);\n    _to.transfer(msg.value);\n    return true;\n }\n}",
  "sourcePath": "/Users/sumitpatel/Documents/WORK/circle_hackathon/blockchain/contracts/Migrations.sol",
  "compiler": {
    "name": "solc",
    "version": "0.8.3+commit.8d00100c.Emscripten.clang"
  },
  "schemaVersion": "3.4.3",
  "updatedAt": "2022-04-11T12:06:09.766Z",
  "devdoc": {
    "kind": "dev",
    "methods": {},
    "version": 1
  },
  "userdoc": {
    "kind": "user",
    "methods": {},
    "version": 1
  }
}